:1000000000800010D1000000CD000000CD000000F5
:10001000CD000000CD000000CD0000002E7BFFEFE2
:10002000000000000000000000000000CD00000003
:10003000CD00000000000000CD000000CD00000059
:10004000CD000000CD000000CD000000CD0000007C
:10005000CD000000CD000000B5240000CD00000060
:1000600005250000CD000000CD000000CD000000FF
:10007000CD000000CD000000CD000000CD0000004C
:10008000CD000000CD000000CD000000CD0000003C
:10009000CD000000CD000000CD000000CD0000002C
:1000A000A11D0000CD00000021190000CD000000BE
:1000B000CD000000CD000000CD000000CD0000000C
:1000C000CD000000CD000000CD000000FEE70000E4
:1000D000684620F007018D4601B500230B4A0C4904
:1000E0009818884204D20B49585898500433F5E7C1
:1000F000094B0A4A934203D2002043F8040BF8E765
:1001000002F0CCFE00F00EF8FEE700BF0000001089
:1001100010000010B832000010010010801700100D
:1001200070470000F8B5002001F058FB002001F0F6
:1001300023FD012001F0D5FCBF4BC04C1A6822F40E
:100140004000186019681960256825F0006626606F
:100150001F6C27F440021A64186C18640023B84915
:100160005E5CCF18740104F100557C7805F51C2005
:100170000125F20005FA04F502F1804104F00F07B1
:1001800001F5303221097C00032707FA04F4856168
:1001900052F82160023326EA040642F8216052F840
:1001A0002170062B42F82170026845EA02050560BD
:1001B000D5D10023A34DEC1867785E5D0125700151
:1001C00005FA07F500F1005107F00F0401F51C20B6
:1001D00064003909032707FA04F4F20002F18046AB
:1001E000856106F5303252F82160023326EA0406B2
:1001F00042F8216052F821700C2B42F821700268FD
:1002000045EA02050560D5D100238F4DEC186778CB
:100210005E5D0125700105FA07F500F1005107F058
:100220000F0401F51C2064003909032707FA04F4C0
:10023000F20002F18046C56106F5303252F82160C5
:10024000023326EA040642F8216052F82170062B98
:1002500042F82170026845EA02050560D5D1802484
:1002600000257748295C43194E015978012006F191
:10027000005700FA01F6023507F51C22062DD6615B
:10028000EFD101F083FC00226D4D505DAE18757802
:100290004701012007F1005300FA05F7023203F588
:1002A0001C21062A8F61EFD101F070FC013CD7D1EF
:1002B00023466448C218195C547801204E0100FAA4
:1002C00004F106F10055023305F51C270C2BF961EA
:1002D000EFD101F05BFC00235A48C2181E5C517834
:1002E0000120750100FA01F605F10057023307F508
:1002F0001C240C2BA661EFD101F048FC0023504DCB
:10030000585DE9184D784701012007F1005400FAC3
:1003100005F704F51C221668023326EA0704062BAB
:100320001460ECD10023474E9A5DF41866785101B1
:10033000012201F1005502FA06F105F51C27386883
:10034000023320EA01050C2B3D60ECD100233E4F27
:10035000D85DF9184F784401012004F1005600FAE5
:1003600007F406F51C221568023325EA0406062B5D
:100370001660ECD1314D642001F0D8FB6A6902F0BF
:10038000006701F00FFDC4B214B96969090102D414
:10039000002001F0C1FC002000F02CFB002000F048
:1003A000F1F84CBB25484669320125D543F6D27396
:1003B0001D78422D20D143F6D3721178E1B100218E
:1003C000012044F2040701F09DFBF97869BB1F4E40
:1003D0004FF4804206F5804303F5082404F5804578
:1003E0007160596061606960106880F3088844F248
:1003F00004073968884718E0202000F0C7FA3CB3AA
:10040000102000F0C3FA23E001F0AAFB40F2F3163B
:10041000B0423446F8D901F09DFB0120002101F0E3
:1004200071FB01F09DFBA042FBD901F093FB012081
:10043000014601F067FBE7E70CC0024020C009203D
:10044000122F0000182F00000C2F000000C00040E9
:1004500001F080FB01F084FB3226B0FBF6F364254B
:100460000446B3FBF5F005FB103242F21071B4FB09
:10047000F1F5530801FB1542B4FBF6F106FB1141FF
:1004800041F28830824288BFC3EB060301209942C3
:1004900094BF002101210A2601F034FBB4FBF6F3DE
:1004A00006FB13440CB900F0AFFC002000F0EAFE9C
:1004B00001F056FB44F61F65A842CBD900F06CF85A
:1004C0000028C7D1002F7FF47AAF024A5069030198
:1004D000C0D574E720C00920124B10B51A78032A42
:1004E0000BD8114900F07F000C684FEAC41444EAAD
:1004F000001008600FD104220EE0072A0FD80B4924
:1005000000F07F000C684FEAC41444EA0010086051
:1005100001D1082200E001321A70002010BD4FF016
:10052000FF3010BDD405001010010010180100109C
:1005300070B5134B16461A7888B004460D468DF8F0
:1005400000209978DA7858781B798DF802108DF8A8
:1005500003208DF801008DF8043000F021FF8DF8A4
:100560000500F7208DF808006946204609228DF81D
:1005700006508DF8076000F0D1FA08B070BD00BFDA
:100580001032000010B9034B187070474FF0FF3065
:10059000704700BFD5050010014B1878704700BFA9
:1005A000D50500102DE9F04798468AB00C4615464F
:1005B000064600F071FC01F0CDFAB8F1010F04D04D
:1005C000B8F1020F40F0C78182E0AF4B14B1012CAB
:1005D0000AD104E01C70AD4BAD4A1C608BE0197869
:1005E000072900F2B68190E01978082940F0D980F7
:1005F000A848A94C0278437881782270C2780079A3
:10060000A24FA34D6370A170E27020713F682D6806
:1006100000F0C6FE4FEA556E6071780E0223E0715D
:10062000C7F386417044A3712172C7F3C6234118F2
:100630006372C7F30612CB18C5F38640A2729A18EC
:100640001118C5F3C623CA182073C5F30610111874
:1006500063730023A07384F80BE001F0FF011A46D6
:100660000F341846A84221D010F807E04FF0080CCC
:1006700001335200DBB242EADE12062B4FEA4E0E85
:10068000D2B25FFA8EFE0AD9C3F1070302FA03F26F
:10069000D2B25118002304F8012BC9B21A460CF14A
:1006A000FF3C1CF0FF0CE3D10130DBE71BB18B18E2
:1006B00004F8012BD9B24A42774902F07F00F723B0
:1006C000A21C207063703046521A00F027FA40E1F5
:1006D00014B1012C53D110E06B4B6C496C486F4A3C
:1006E0001C700C6004606E4B6E496F4814706F4A4A
:1006F0001C700C60046014602BE1634801780729CA
:1007000007D8664908782A180A702846FFF7E4FED9
:100710001FE108292BD161480378EA18027061486B
:100720000368B3F5806F80F01481594E5F4F5E4CC3
:1007300036683868226807240132C5F380176D00D7
:10074000072A47EA4000EDB206D9534AD054013394
:10075000B34228BF09210022013CEDD1534C206057
:10076000514802604F4A1360474B1970F1E0092964
:1007700002D14B4A1570ECE00C230370E9E0494BC1
:1007800043481A680768BA4207D23946484800F019
:10079000EBFA30460E21012213E03B490A780C2A7D
:1007A00003D130460E2142460BE03C493C4B0A78CF
:1007B0001878534203F07F01884205D030460E215D
:1007C0000322FFF7B5FEC4E03A48304A0124047022
:1007D000146844EA07039B0740F0B180B4F5804FEA
:1007E00002D26FF00701ACE000F09AFF411E8C428C
:1007F00000F2938001F0ACF804252F4B53F825103C
:100800008C423CD22D4850F82520944226D1DFF866
:10081000B0A032238DE82800DFF8A890684605A92B
:100820000295CDF80CA0C847059B6846C3F10008A7
:10083000342305A98DE828000295CDF80CA0C847FF
:100840000599B8F1000FB4BF4FF0FF384FF0000822
:1008500048420028B8BF6FF0010801E04FF00008DF
:10086000174A32238DE82800684605A902950392AD
:10087000144B984705994842002825DA28E00135AD
:100880001E2DBAD12CE000BFD405001010010010BD
:100890001801001010320000200100101401001097
:1008A0001C010010D0050010C8050010CC05001078
:1008B000242F0000D50500109C2F000014300000EC
:1008C000C0D40100F11FFF1FB8F1000F08D001E0F4
:1008D0006FF0020801F050F826482146424614E025
:1008E000254D264A33238DE81800029505A9039764
:1008F00004926846224B984705994D42002D09DA2B
:1009000001F03AF81F4821462A4600F02DFA6FF010
:10091000030116E001F030F820E0B4F1805FFFF44D
:1009200060AF00F000FF00F18050421E94423FF69D
:1009300058AF204610493A4602F0D6FA0EE06FF062
:1009400008014A4230460E21D2B2FFF7F1FD00F015
:100950005BFA00200AE04FF0FF3007E00A480F2161
:1009600002783046534203F07F02EEE70AB0BDE85A
:10097000F08700BF532F000020010010C0D40100F9
:10098000F11FFF1F752F00001401001010B5114B4F
:1009900088B01A78997804468DF800205878DA786B
:1009A0001B798DF802108DF803208DF801008DF869
:1009B000043000F0F5FCF7218DF8050001208DF8DA
:1009C00006008DF8071020466946082200F0A6F8B8
:1009D00008B010BD1032000008B52020FFF7D6FF88
:1009E0001020FFF7D3FF024B0020187008BD00BF96
:1009F000D505001038B50446002839D11E4A1F49D4
:100A0000102313700B701E4D1E4B1F4A1F49286088
:100A100018601F4D1F4B106008601860286001F0BF
:100A20009FFAC50F204600F0D9FC1B4A00281B4B3B
:100A3000B8BF45F00205002010701978184A60F31D
:100A400007011970107043F6D0700378422B05D15E
:100A500043F6D1710878010658BF1070114B00227F
:100A600011491A8000220023C1E90023684238BDE1
:100A70004FF0FF3038BD00BF000000100200001032
:100A8000E0050010D8050010000600100806001050
:100A9000F4050010E4050010E8050010EC05001056
:100AA000E9050010EA050010F805001010F0F00F3D
:100AB00070B504460D4604D101280CBF144B154BEC
:100AC0001C78154B04F00F061A6872B904F0F00098
:100AD000102812D0202817D166F3071504F00F0054
:100AE0002946BDE8704000F023BD66F30715204697
:100AF000294690470028E9D070BD66F307152846BF
:100B0000BDE8704001F096BA4FF0FF3070BD00BFF5
:100B10000200001000000010D80500102DE9F0417F
:100B200080460E4617460024BC4235D23B1B022BA2
:100B30000DD0032B19D0012B19D1325D052161F3A2
:100B4000030562F30F2501346FF317450AE0305DAA
:100B50003119062363F303054A7860F30F2562F326
:100B6000174502346FF31F650FE0072000E00420F3
:100B700060F30305335D3019417863F30F25827804
:100B800061F3174562F31F65033440462946FFF7BA
:100B90008DFF0028C8DA00E00020BDE8F0810000E9
:100BA00030B5F023A1B08DF80030134B7E223225F2
:100BB0008DF803201A7800248DF804500F258DF845
:100BC00001408DF802408DF805208DF8065002ABEB
:100BD0000D5D5A1E35B101341A4603F8015C01332C
:100BE000642CF5D1F72102F8011B6946521AFFF770
:100BF00095FF21B030BD00BFE905001000B5F0231E
:100C000089B08DF8003000238DF801308DF8023066
:100C10007E238DF8033032238DF80430084B8DF895
:100C200006101B78F7218DF807208DF8081009228F
:100C300069468DF80530FFF771FF09B000BD00BFB0
:100C4000E90500102DE9F041042300240E4663F36A
:100C500003046FF00F0161F30F246FF317446FF378
:100C60001F64214605469046FFF720FF0E4B0746BE
:100C70007E201978322260F30F2462F3174461F367
:100C80001F6421462846FFF711FF07430D2060F33C
:100C90000F2466F3174468F31F6428462146FFF7C4
:100CA00005FF3843BDE8F081E90500102DE9F84360
:100CB00081468846174652B30D460026C8EB050309
:100CC000BB4225D22978042060F3030431B16B784C
:100CD00001F07F0262F30F241BB90DE061F30F24D2
:100CE0000AE0A97803F07F0060F3174431B101F006
:100CF0007F0262F31F6403E06FF317446FF31F6416
:100D000048462146FFF7D2FE03350643D6E716468E
:100D10003046BDE8F88308B50021052363F30301DD
:100D20006FF0080262F30F2189B2FFF7BFFE08BD22
:100D3000F8B5054602F0E1F80A4F0646402138783A
:100D40002A78FFF77FFF012E044605D93878691C01
:100D5000721EFFF7ABFF0443024B1878FFF7DBFF6F
:100D60002043F8BD020000100FB430B5A3B0269D9B
:100D7000284602F0C2F8642801D90E4813E002ACFC
:100D800027AA29462046019201F019FD204602F0CB
:100D9000B4F80023834205D0E25C02F07F01E15405
:100DA0000133F7E72046FFF7C3FF23B0BDE830402B
:100DB00004B07047D430000010B50E4B04461A78CA
:100DC00002F00801C8B248B10B490878A04205D129
:100DD0006FF307021A70094B00221A7008490A685B
:100DE0000AB12046904721460648FFF7BDFF002084
:100DF00010BD00BFEC050010E8050010DC05001078
:100E0000080600102731000010B501F057F904461C
:100E100000F00AFB044300F06DFC054B4FF6FF7138
:100E20001A8820438A4201D001321A8010BD00BFC7
:100E3000EA05001008B5034B1A680AB1904708BDCF
:100E4000104608BDE0050010114BF7B51C680746B9
:100E5000E4B1C1F307640F4DC1F30720C1F30742AA
:100E60008DF8064001F00F0100246E5C8DF804003F
:100E70008DF805202546B54208DA054B01AA515DDB
:100E80001B683846984701350443F4E72046FEBD09
:100E9000E0050010C4300000012803D0034B187097
:100EA000002070474FF0FF30704700BF0200001075
:100EB000F0B5614E8BB0337804460D461746FFF708
:100EC00071FB002880F2B58031780D295CD001D803
:100ED00039B1A1E00E2900F0AC800F2940F09C80D0
:100EE0008EE0564B1DB1012D03D11F70A1E01D7086
:100EF0009FE0187805282BD011D8022820D004D8DC
:100F000001283DD120464E491CE003281DD004286D
:100F100036D100F0F1FB4B490246684625E008282F
:100F200028D006D806281BD0072829D100F0FBFBC3
:100F300018E0092821D07F2822D1FFF74DFD78E065
:100F400041492046FFF72CFE73E020463F49F9E770
:100F5000684600F0EBFB0028204609DA3C49F1E73F
:100F600000F0DEFB3B490246684601F019FC2046D2
:100F70006946E7E720463849E4E720463749E1E794
:100F800020460E210D2244E0354E15B1012D16D11B
:100F900002E0FF2131704CE03078FF2801D137703A
:100FA00047E018B1012844D12E4B00E02E4B1B68BE
:100FB000002B3ED02D4A39461078984739E03278D8
:100FC000AAB920460F21FFF719FE3378002B30D144
:100FD000254A116869BB264D20462D78FFF75CFF36
:100FE0002448FFF7A5FE2846FFF756FF21E0012A17
:100FF00002D11C490868E0B920460E21102208E001
:101000001D4A0DB1012D01D1556012E0526882B91F
:101010002046FFF7F3FD0CE00E210A462046FFF7BD
:10102000EDFD1549044B0A7800206FF307020A70A2
:10103000187000200BB0F0BDDC0500100406001095
:101040006D3100008C3100007431000084310000EB
:10105000913100009331000096310000A83100006A
:1010600001000010E4050010F4050010E805001070
:1010700002000010BA310000EC050010F72910B58D
:101080000A465AD82E4B197801F0080303F0FF04E2
:101090001BB12C4B1B7883424CD1A0F11103062BC2
:1010A00048D9284B187004BB2548037803F0070380
:1010B000042B03D82448C05C904221D101F00701E1
:1010C000052903D121480178914219D15A1C1C4BA2
:1010D00002F007001978052860F3020119702CD975
:1010E000CAB242F00800187027E0130611D5F72A9B
:1010F00006D101F01001CBB213B10221FFF7D8FEE7
:101100000F4B134A197800206FF307011970107004
:1011100010BD01F01004E4B244B9094B197841F054
:10112000100119700A4B21461A7000E00121FFF7E7
:10113000BFFE02E04FF0FF3010BD002010BD00BF29
:10114000EC050010E805001010320000E905001061
:10115000DC05001001F00F032DE9F0470F46C1F345
:101160000728C1F307494FEA116A03F1080101F0AA
:101170000F010629064602D8002A58D17AE0B8F1B4
:10118000F00F05D003F10C0000F00F01032929D85E
:101190003A49D1E9004554EA050023D106F0F004AC
:1011A000302C4FF000000CD0502C13D0102C19D143
:1011B000334C208006F00F00012404FA00F0088070
:1011C00010E02F4C208006F00F00012404FA00F0FC
:1011D000488007E02A4C208006F00F00012404FA22
:1011E00000F08880991E0D2944D8DFE801F01E1E0A
:1011F000071B24244343434343434307B8F1F70FFA
:1012000013D83046414607F00F07FFF737FF0F2F7F
:1012100030D049463046FFF731FF30465146FFF7A0
:101220002DFF27E0B8F1F70F05D91AB3304627F0A4
:10123000F00190471EE01A1F12F0FF041AD030464A
:101240004146FFF71BFF012C0CD030464946FFF703
:1012500015FF022C05D030465146FFF70FFFD04650
:1012600000E0C846B8F1F70F04D10448002200237B
:10127000C0E900230020BDE8F08700BFF80500109A
:10128000EA0500102DE9F04180468CB0684600F078
:10129000E9FE002807DB00994246C1F30310103035
:1012A000FFF758FFF2E73B4D02AC0FCD0FC40FCD57
:1012B0000FC495E803009DF8083084E803004BB3A1
:1012C0000024254626460CA800EBC40111F8282C62
:1012D00012B9FDB1144615460CAF07EBC40313F861
:1012E000287C53F8242C07F00F0001A9904710F137
:1012F0000A0F03D13846FFF75FFD08E0002806DB40
:1013000038460199424601360135FFF723FF013483
:10131000092ED8DD2049D1E9002352EA030035D057
:101320001E480388B3F57A7F30D90A8862B100215C
:1013300042FA01F313F0010003D101311029F7D172
:1013400001461031C8B21AE04B885BB143FA02F093
:1013500010F0010103D10132102AF7D10A463032D0
:10136000D0B20CE0888850B140FA03F111F00102CC
:1013700003D10133102BF7D113465033D8B2FFF706
:101380001BFD054800220023C0E9002300200CB00B
:10139000BDE8F0818C300000F8050010EA0500106F
:1013A000014B1878704700BFE9050010012838B5D7
:1013B00004460CD800F0CCFA064B0748FF22002563
:1013C0001A5520F8145000F0D7FA284638BD4FF0CF
:1013D000FF3038BD0C0600102A06001010B5044678
:1013E00010B14FF0FF3010BD0D4B0E49FF221860B9
:1013F000187158719871D8711881D8601874587420
:101400009874D87498820A70FFF7D0FF0120FFF714
:10141000CDFF204600F0E2FE0028E2DB204610BDB2
:10142000100600102806001008B500F091FA104AC6
:101430004FF6FF71138808468B4201D001331380A9
:101440000C4B1989814201D0481C188152884FF6F3
:10145000FF718A4202D00648013242809B8A8B4249
:1014600002D0044A591C918200F086FA002008BD7F
:101470002A06001010060010F7B50128C1F3072650
:1014800001F00F03C1F307420546F7B2C1F307614C
:1014900002D94FF0FF3040E0204CE45C002C3BD000
:1014A000DFF888E08DF804603EF815C08DF805205F
:1014B000BCF57A7F8DF8061002D9FFF777FF1BE0A5
:1014C0001748007840FA05F0C00715D5072B13DD43
:1014D0000F2B11D0012C0ED9124B5B5DBB4206D1F4
:1014E0008DF80420621E8DF80510D4B204E00023AC
:1014F0002EF8153000E00124F72F98BF094B01A901
:101500002846224698BF5E5500F0C8FF811C02297C
:10151000BFD80548405600E02046FEBDC43000005C
:10152000280600100C060010153200002A060010D4
:1015300038B505460C4628462146FFF79DFF831C1B
:10154000F9D038BD01282DE9F04180460F4603D976
:101550004FF0FF30BDE8F0810C2606FB00F6624D2F
:10156000AC19404600F0C6FE0028C0F2A180020679
:10157000C3B252D5F72B08D9396841F00F023A604F
:101580007B700023BB70FB70ABE05849C3F30212C1
:10159000895C2371617109B1002137E0544A00F080
:1015A0000F00125CF02B627103D101226370E271B3
:1015B000F2E7F72B1DD1E279207842B1012A0ED152
:1015C000062262F303002070A370E1700CE0052195
:1015D00061F3030020706370A270E27004E00721E1
:1015E00061F303002070E370236800203B60E0712A
:1015F0000BE0002AD0D12178052060F3030121708F
:101600006370A270E27023683B600121637900205F
:10161000A37120810029A4D063E02279F02A17D198
:10162000E279511CC8B20128E07103D0022803D12D
:10163000A37096E7637094E7E370AB5D042262F3F6
:101640000303AB55A95900203960E071208148E0BF
:10165000A07920B962792081511EA17101E0411E5B
:10166000A1716079012802D1A370002303E0A2795F
:101670000AB1A37000E0E370A379002B7FF471AF8F
:101680002079AA5D00F0F001F02901D0010908E0FD
:1016900063791BB1012B03D1022102E0052100E097
:1016A000032161F30302AA556070A859386018E05D
:1016B0000020A17971B12289B2F57A7F0AD900237D
:1016C000AB5123716371A371E37123816FF0090042
:1016D000BDE8F08100280CBF4FF0FF300020BDE8CE
:1016E000F0810120E5E700BF10060010083200007D
:1016F000B43000000020704700B58BB000F028F92E
:1017000036230AA840F8283D05A96846034A9047B1
:1017100000F032F906980BB000BD00BFF11FFF1FAB
:101720004FF4002070474FF48030704770B58AB096
:10173000044600F00DF93A220AA840F8282D114B72
:10174000684605A9984700F017F900230AA9CD18A3
:1017500055F8101C002204EB430501F00F00092886
:1017600094BF302637263018A85401320909082AB8
:10177000F3D10433102BE9D1002084F820000AB003
:1017800070BD00BFF11FFF1F37B502AB03E90300B7
:10179000114B009A022119723C21B2FBF1F401FBBA
:1017A00014250020ECB2187283F820404FF46164D5
:1017B000B2FBF4F504FB1522B2FBF1F1CCB2182117
:1017C00083F82440B2FBF1F401FB1422D1B20122D0
:1017D00083F828101A723EBD0040024013B500285D
:1017E00040F08880454B2022C3F8A0211946D1F84B
:1017F000A001424C4006FAD50323414A4149C4F8AE
:101800000431414BC4F8A8210120C4F8AC11552281
:10181000AA21C4F80C01C4F88430C4F88C10C4F8B0
:101820008C20C4F88000C4F88C10C4F88C20334C91
:10183000D4F888004101FAD50323AA215522C4F81F
:101840008030C4F88C10C4F88C20D4F888002B4B5E
:1018500010F0407FF9D0AA21552223240120C3F89B
:10186000A440C3F8AC10C3F8AC20C3F8A000C3F880
:10187000AC10C3F8AC20214CD4F8A8305B05FAD5E5
:101880000321AA225520C4F8A010C4F8AC20C4F843
:10189000AC00D4F8A810194B11F4407FF9D04FF0E8
:1018A000FF34C3F8C4400024C3F8C8411A6822F4C6
:1018B000704040F480411960144A154B15489A60F5
:1018C00002A9D8600094019411E90300FFF75CFFBE
:1018D000114B124801221C605C609C60DC601C6142
:1018E0005C619C61DC61052102631A2000F058F8FC
:1018F000204601E04FF0FF301CBD00BF00C00F408C
:1019000000001154000440007700050000000000B2
:1019100000ED00E00003FA05300600100040005022
:10192000094B70B51E6800250124344206D00748D3
:10193000295801B18847044A946014610435640051
:10194000202DF2D170BD00BF0040005030060010C5
:10195000074B1A681AB9EFF31081064801604FF07F
:10196000010080F310881A680020511C196070472C
:101970005406001050060010074A13683BB1581E69
:10198000106038B905490A6882F3108802E04FF008
:10199000FF307047002070475406001050060010BA
:1019A0000F291CD80F4BDA68D343C3F30222C2F1CC
:1019B000040301FA03F100F160430901CAB203F51F
:1019C000614181F80023012342B200F01F00510958
:1019D00003FA00F2044840F82120002070474FF03D
:1019E000FF30704700ED00E000E100E0013A2DE932
:1019F000F0478446052A70D8DFE802F00318080C87
:101A00000F1300231C460222012513E000231C466D
:101A100003220EE000231C4601E0002301241A46A5
:101A200007E0012300221C46154603E000231C4664
:101A300002221D4601F00F084FEA48084FF0030943
:101A400009FA08F905FA08F502FA08F24FEACC0695
:101A500006F1804000F530360F0956F827A06FEAEE
:101A6000090909EA0A0A46F827A056F827A006EB52
:101A7000870045EA0A0546F82750056C09EA05057E
:101A80000564056C2A4302644FEA4C1000F10052D1
:101A900002F51C22012024B100FA01F01468204351
:101AA00004E000FA01F0146824EA000010604FEA34
:101AB0008C0202F1804000F5303001223BB102FA85
:101AC00001F2836E1A4382660020BDE8F08702FAB5
:101AD00001F2846E24EA0202F5E74FF0FF30BDE820
:101AE000F087C30710B5044604D50020162105224F
:101AF000FFF77CFF34F0010314BF6FF001000020FA
:101B000010BD0000C20707D5074B11F0010F4FF4BD
:101B1000800214BF9A61DA6130F0010314BF6FF0E4
:101B200001000020704700BF00C009201E2148436B
:101B3000074B002201381A674FF0FF31D8600320AD
:101B4000996158611960012159601046704700BFC2
:101B500000400940014B0020986070470040094058
:101B6000044B9868196811F0010F18BF4FF0FF304F
:101B7000704700BF0040094018B9034B08221A7291
:101B800070474FF0FF30704700000B401E23584352
:101B9000034BD968DA68521A8242FBD90020704799
:101BA00000000B4000F01000C1B211B1002000F0A5
:101BB000DDB97047F0B51646474A93B051680746FD
:101BC00010686B4603C3906803AC1860434B03F185
:101BD000100218685968254603C5083393422C46FD
:101BE000F7D1198829807878092803D1012000F0DD
:101BF000BDF96EE006286CD17B881A0A032A68D1E9
:101C0000D9B2032965D8DFE801F006021D470DF1BE
:101C1000FF3000230DE03248092383700423C37092
:101C200050E0642A13460BD02D4AD154D21800211B
:101C3000517010F8011F9A1C93B20029F1D141E0B4
:101C400064233FE0002303F57F5292F8200099B20D
:101C500058B120385F288CBF002001200133202B91
:101C600006D00028EFD103AB06E00029FBD001E04D
:101C70000028F8D043F6E073591E002311F8010F35
:101C80009A1C93B2F0B1642A1346D9D0144AD054A6
:101C9000D21800205070F1E708A8FFF747FD002890
:101CA00017DB0DF11F01002311F8010F9A1C93B2ED
:101CB00040B1642A134605D0094AD054D2180020F6
:101CC0005070F1E7064A0321137051700120326011
:101CD00000E0002013B0F0BD183200009631000083
:101CE000580600104378212B0ED0222B10D0202B29
:101CF00001D0002070471268064B10681860908869
:101D0000927998809A7101E0024B13600720086075
:101D10000120704704000010022808B52FD80128C0
:101D200006D1002000F0D3FD42F21070FFF72EFF25
:101D300001F08EF8134800F0BDFF134A012013494B
:101D400000F0ACFF124801F07BF88120114900F04F
:101D50008BFD1149022000F087FD202000F0BDFD21
:101D60000E4800F0A1FD012000F000F90821182024
:101D7000FFF716FE012000F0AAFD002008BD4FF07D
:101D8000FF3008BD24320000BC060010E51C000036
:101D9000B51B0000D9200000E9200000A51B0000B1
:101DA00000F02CBE024BD3F8F40FC0F34000704794
:101DB00000C00050084B0004302240F4A061C3F87A
:101DC0000822C3F81012D3F8002212F01000FAD043
:101DD000014BC3F80802704700C000502DE9F041E4
:101DE000064606F00F07FFF7B3FDBA00284B42F096
:101DF0000100C3F828021A46D2F820020105FBD5DB
:101E000042053CD5C0F387081FFA88F1002936D077
:101E1000204B1A8890B2C0F5007399422FDA002443
:101E2000C4EB08010AB2002A19481DDDD0F8185287
:101E3000C5F3031010302946FFF706F890B9164B8A
:101E4000164A198889B242F8215019884A1C91B261
:101E5000B1F5007F198028BF18800E4803885A1CEE
:101E600091B201800134DBE70023F109C0F8283288
:101E700041EA4700FFF79EFFF220FFF79BFF04486F
:101E80000022C0F82822BDE8F041FFF775BD00BF71
:101E900000C00050C4060010CE160010CC0E00107A
:101EA00070B50446FFF754FD274B1878002846D13B
:101EB000264B1A8891B2002941D025480278002A81
:101EC0003DD0198888B2102898BF1B8804F00F01F4
:101ED00094BF9BB210238A0042F002001D4AC2F850
:101EE000280218B28000C2F82402C3B100231948A6
:101EF000D0F82822920712D5174A184D16880133B8
:101F0000B6B255F82650C0F81C521088013080B285
:101F1000B0F5007F1080EAD300201080E7E70A4A7E
:101F200001201070094A1088C31A98B21080E20983
:101F300042EA4100FFF73EFFFA20FFF73BFFBDE812
:101F40007040FFF719BD00BFC80E0010D01600107A
:101F5000D416001000C00050D2160010C8060010A1
:101F6000002814BF4FF0FF30002070470C4A0D4985
:101F7000002310B513800B800B4A0C4913800B8093
:101F80000B4A0C4913801C460B8001220A490B4B5B
:101F900010B10A701C7001E00C701A70002010BDA6
:101FA000C4060010CE160010C6060010D016001091
:101FB000D6160010D2160010D4160010C80E00104D
:101FC00038B5184C0546237813B94FF0FF3038BDAB
:101FD000154801888AB2B2F5FF7F08D98120FFF742
:101FE0005FFF2378002BF0D06FF0010038BDFFF7C2
:101FF000AFFC0E4B0E49188882B2501C41F822509B
:1020000082B21A80198888B2B0F5007F01D300220D
:102010001A80054B1988481C82B21A80FFF7ACFC65
:10202000002038BDD4160010D0160010D6160010AF
:10203000C806001010B504462046FFF7C1FF811CFA
:1020400008D1074B42F20F711A888A4207D8501CF8
:102050001880F1E7002802DB014B00221A8010BD36
:10206000CC160010124B10B50446188881B2D9B1B5
:10207000FFF76EFC0F4B10491A8890B251F82020E0
:1020800022601C88601C81B2B1F5007F198001D3E9
:1020900000221A80064C2388581E81B22180FFF747
:1020A0006BFC228890B210BD4FF0FF3010BD00BF16
:1020B000C4060010C6060010CC0E001008B5054B73
:1020C000187828B10220FFF789FE8120FFF7E8FE8B
:1020D000002008BDD4160010024B00221A70FFF732
:1020E000DFBE00BFC80E0010030604D5034B00225C
:1020F0001A70FFF7D5BEFFF771BE00BFC80E001003
:102100002DE9F04F012885B0009059D82F4B304C65
:1021100053F820600122002348082E4D02900194BC
:102120009C4698469346002707EB0209B5FBF9F950
:10213000B9FBF1F401FB1490DDF808A0504588BF0D
:102140000134E01E4FF6FC7A50450FD8B9FBF4F38A
:102150008B42019894BFC3EB0103C1EB030383429D
:1021600004D283B10193A446B84693460137102F99
:10217000DAD15BB105F5E415013205F5E155183505
:10218000102AD0D102E0A446B84693468323337385
:10219000CCF307205FFA8CF2032308F00F0C3071A8
:1021A0004CEA0B1832703373009A0B4B07205FFA1E
:1021B00088F886F8288043F822103072002001E069
:1021C0004FF0FF3005B0BDE8F08F00BF9C3200003B
:1021D000A0860100389C1C00E4160010F8B50446E7
:1021E000002870D1394B1A6822F0030119601D686C
:1021F00045F002061E601F6C354E27F003021A647C
:10220000196C41F002051D64B76E47F00102B26619
:10221000196821F00C051D601E6846F008071F6054
:102220001A6C22F00C0119641D6C1D64103B1E68B1
:1022300026F003071F601A6842F0020119601D6C46
:1022400025F003061E641F6C47F002021A64996EA3
:1022500041F001059D661E6826F00C071F601A6894
:1022600042F0080119601D6C1A4A25F00C061E6424
:102270001F6C194E1F64194D194B1A4F1A493870AB
:1022800030702870087010701870787070706870F6
:10229000487047F6122150705870FFF731FF012047
:1022A00047F61221FFF72CFF104803254560042153
:1022B0000620FFF775FB0E4908204D600421FFF74B
:1022C0006FFB2046F8BD4FF0FF30F8BD10C0024054
:1022D00008C00240DA160010E0160010DE160010EA
:1022E000D8160010DC160010E216001000000140A5
:1022F00000C00940012838B504461BD8104B185CB3
:10230000D8B1FFF725FB0F4B0F491A5D185D02EBA3
:102310008415421C4D5DD1B23F29195501D90020C9
:102320001855074B1A5D511EC8B21855FFF724FB0C
:10233000284638BD4FF0FF3038BD6FF0010038BD82
:10234000DC160010DE16001010000010012838B551
:1023500004460D461CD8114B185C3F281BD8FFF7CC
:10236000F7FA0F4B0F491A5D02EB84101A5D0D54FA
:10237000501CC1B23F29195501D900221A55074BEB
:10238000185D411CCAB21A55FFF7F6FA002038BD95
:102390004FF0FF3038BD6FF0010038BDDC16001083
:1023A000E016001010000010012838B504461DD8B2
:1023B000114B185CE8B1FFF7CBFA104B104A195DCE
:1023C00002EB84156818195D90F880504A1CD0B251
:1023D0003F28185501D900211955074B1A5D501E89
:1023E000C1B21955FFF7C8FA284638BD4FF0FF3083
:1023F00038BD6FF0010038BDE2160010D81600108D
:10240000100000100128F8B504460E46174636D8CD
:102410001E4D2B5C98183F2834DCFFF799FA1C49B5
:102420002A5D51F824304AB9187D00F02001C8B265
:1024300028B116F8012B01201A7000E00020034695
:10244000BB4218DA134D144A295D02EB841252186C
:10245000311AC95C82F880100C4A115D0131C9B291
:1024600011552A5D511CCAB23F2A2A5501D90021B3
:1024700029550133E4E7FFF77FFA0020F8BD4FF05C
:10248000FF30F8BD6FF00100F8BD00BFE21600108C
:102490009C320000DA1600101000001070B50646DD
:1024A0000D461446304629462246FFF7ABFF831CF3
:1024B000F8D070BD10B5114CA36803F00E000428CD
:1024C0000DD1207DC10718D5247820202146FEF7A4
:1024D000B1FC90B92146BDE81040FFF737BF022894
:1024E0000BD107490A7842B10020FFF75DFF30EABF
:1024F000200028BFFF20C3B2237010BD00000140A0
:10250000E216001010B5124CA36803F00E00042868
:102510000ED1207DC00719D5247821202146FEF751
:1025200089FC98B901202146BDE81040FFF70EBF95
:1025300002280BD107494A7842B10120FFF734FF46
:1025400030EA200028BFFF20C3B2237010BD00BFB7
:1025500000C00940E216001020B10368197001683C
:102560004A1C026070472DE9F843141E80468946D4
:1025700001DC20270FE0002219F8021009B1013216
:10258000FAE7A242B4BFC2EB04040C4613F0020FF8
:102590000CBF20273027DB070CD42546002D05DD96
:1025A00040463946FFF7D8FF013DF7E724EAE476D5
:1025B000A41B00E000263546C6EB0903595D21B196
:1025C0004046FFF7C9FF0135F6E72646002E05DD38
:1025D00040463946FFF7C0FF013EF7E7002CACBF8D
:1025E0002819281CBDE8F8832DE9FF470C9E814679
:1025F000DDF834800C4651B930228DF804208DF876
:102600000510324601A94346FFF7ADFF35E033B16F
:102610000A2A04D1002902DA4C42012700E00027EF
:1026200004AD002305F8013DAA466CB1B4FBF2F3FA
:1026300002FB1344092C02DD0E993A396418303438
:1026400005F8014D1C46EFE787B14EB118F0020FB7
:1026500006D048462D21FFF77FFF013E012705E008
:102660002D2005F1FF3A05F8010C00274846514698
:1026700032464346FFF777FF381804B0BDE8F087CD
:10268000F0B589B006460D46059200242B7823B19B
:10269000252B79D168786A1C28B9002E7BD0306848
:1026A0000022027077E025286DD02D2802D1AA1CC7
:1026B000012300E00023174639780132302902D186
:1026C00043F00203F7E7002239783D46A1F13000DC
:1026D0005FFA80FC0137BCF1090F03D80A2505FB1E
:1026E0000202F1E7732909D1059F3046391D059192
:1026F00039682A4F002908BF394641E064290ED1C4
:102700008DE80C00059961230293081D0968059066
:102710000A2230460123FFF767FF241839E07829A1
:1027200006D105998DE80C00081D0590612207E08F
:1027300058290AD105998DE80C00081D0590412201
:1027400002923046096810220BE075290BD18DE802
:102750000C00059961230293081D096805900A225F
:1027600030460023D7E7632913D10599081D09686E
:10277000059000208DF81C108DF81D0007A930462B
:10278000FFF7F1FEC9E7154630462978FFF7E4FE6A
:10279000013401357AE7204609B0F0BDAC320000C3
:1027A0000EB40FB505AA52F8041B019001A80392BC
:1027B000FFF766FF04B05DF804EB03B0704707B5A0
:1027C00002AB43F8040D1846FFF75AFF0EBD000098
:1027D000044BD3F8002202408242F9D1C3F8080228
:1027E000704700BF00C00050054B000440F4A061DA
:1027F00030221020C3F80822C3F81012FFF7E8BFF8
:1028000000C0005010B50C46FFF7EEFF2004054B4A
:1028100040F480741020C3F81042BDE81040FFF768
:10282000D7BF00BF00C0005010B500F00F04C009B2
:1028300040EA4404012202FA04F20A4BD3F84402AB
:102840000243C3F844224FF48070C3F84842C3F8EF
:102850004C12FFF7BDFF44F040000021BDE81040DE
:10286000FFF7D0BF00C0005000F00F03C00940EADE
:10287000430002220A4B90FBF2F243F8221001219E
:1028800001FA00F0074BD3F834221043C3F83402A6
:10289000D3F8042242F00401C3F80412704700BFC9
:1028A000F416001000C00050044B18600448D0F823
:1028B000042242F00801C0F804127047F01600101C
:1028C00000C0005040F08001D020FFF79BBF011CEA
:1028D00018BF0121FE20FFF795BF0146F320FFF747
:1028E00091BF000010B500F00F04C00940EA440495
:1028F0002046FFF779FF2104054C41F400732020A6
:10290000C4F81032FFF764FFD4F81422D0B210BD1F
:1029100000C00050C30943F04002003100F00F0036
:1029200042EA400018BF0121FFF76CBF38B500F044
:102930000F03C009144640EA43009A00104B42F0CE
:102940000202C3F82822C3F824420D4BD3F82822F0
:1029500092070DD58A78CD78120442EA05620D7887
:102960002A434D78043142EA0522C3F81C22ECE7E1
:10297000FFF73AFFFA20FFF737FF204638BD00BFC8
:1029800000C0005038B500F00F03C0099C0040EAB9
:102990004300164B44F00104C3F82842D3F82052F8
:1029A00015F4006FFAD06B051CD5AC05A50D0024FD
:1029B0002346AB420CD013F0030F04BF0B4CD4F8EA
:1029C000184211B19342B8BFCC54240A0133F0E746
:1029D00006490022C1F82822FFF706FFF220FFF780
:1029E00003FF01E04FF0FF35284638BD00C000501E
:1029F000011C18BF0121D820FFF704BF70B52B4C74
:102A0000D4F80052E90712D5294801230668C4F812
:102A1000083266B1F520FFF7E7FE26492020C4F80A
:102A20001012FFF7D5FED4F81422D0B2B0472A070F
:102A300017D51E4C0823FE20C4F80832FFF7D4FE39
:102A40001D48C4F810022020FFF7C2FED4F814126B
:102A500011F01A0F05D0194A136813B101F01500CF
:102A600098476B0721D5114D0424C5F8084200246E
:102A7000012000FA04F00D4DD5F83012084211D0B3
:102A8000C5F838022020FFF7A3FE0D4B601053F865
:102A90002030D5F814222BB140EAC411C8B202F09C
:102AA0001F0198470134202CE2D170BD00C00050B6
:102AB000EC1600100002F5000002FE00F0160010F7
:102AC000F416001008B500231E4A00219950043363
:102AD000402BF9D11C48016921F4402202610369AD
:102AE00043F480210161426822F0705343604168E1
:102AF00041F0A052426000F55020D0F8C4301A22B4
:102B000043F00041C0F8C4101048C0F8F42F01464B
:102B1000D1F8F80F0D4B00F01A021A2AF8D1002054
:102B20004FF0FF31C3F80402C3F80812C3F82C02B7
:102B3000C3F83402C3F83812C3F84002FFF7CDFEE1
:102B4000012008BDF416001000C0024000C0005073
:102B500070B5094C094E25683168402DA8BF402545
:102B60002A468020FFF7E2FE3368216858194D1B82
:102B70003060256070BD00BF5C170010601700104A
:102B800000B5104BA1B05A781846552A0AD1598879
:102B900041B90D4B1A68802A04D10C4800AA026082
:102BA00001200CE000780A4BC0F3411153F82130AA
:102BB00023B10549054A0348984700E0184621B06B
:102BC00000BD00BF541700106417001060170010FC
:102BD0003417001038B5002853D101F00401C9B2F0
:102BE000002927D0284C08222146FFF7CBFE207869
:102BF000264BC0F3411153F821202549E3880A6090
:102C0000244A254913600B600BB1C2093BD0FFF782
:102C1000B7FF28B980200121BDE83840FFF77ABE10
:102C200019481D4BC1881A681A489142D4BF0160E7
:102C300002601DE0174D2A68002A1DDD144C216832
:102C4000FFF7A0FE0028E5DB226829681318081AA0
:102C500023602860002816D10B4A0C481378C3F370
:102C6000411150F821202260FFF78AFF0028D1D0BF
:102C7000BDE83840FFF76CBF0A46BDE83840FFF7B3
:102C800081BE8028F4D038BD5417001044170010BE
:102C9000601700105C17001064170010034B43F816
:102CA0002010034941F82020704700BF341700105E
:102CB00044170010014B1860704700BF6C170010DC
:102CC0000D49F0B50968050AC6B20024087890B12C
:102CD0004F78AF420DD1B4420AD11960022D05BF21
:102CE000C8788B780B7843EA002313600120F0BD8D
:102CF00001340918EAE7F0BD6C1700104D4B2DE9BF
:102D0000F0411B6804460D4617464BB9267806F07D
:102D10001F06012E54D007D3022E40F0848062E0BB
:102D200098470028F2D081E060783B6809287AD87B
:102D3000DFE800F00579797979090D79151C002013
:102D40001870587046E0A078FFF7BCFD6EE0608810
:102D5000A1882A463B46BDE8F041FFF7B1BF364A9D
:102D60000120117819702860BDE8F081A6780EB9AD
:102D700030461FE0314DFF272D68B8462978C1B194
:102D80006A78042A06D0052A06D0022A0ED195F8C0
:102D900005800BE0EF7809E0B04507D137B96979D4
:102DA0002B79A87843EA0121FFF73EFD28782D18FA
:102DB000E4E70120FFF71CFE62881F490A7035E036
:102DC0006378386823B10A2B06D00B2B2BD106E091
:102DD00003704370022204E00021017016E0628853
:102DE0000ABB2A6022E0D7F800806778012F0FD055
:102DF00002D3032F17D10FE02079FFF773FD0022D4
:102E0000C0F3400188F8001088F801202E600DE022
:102E1000618841B9207903E0608820B920790121D7
:102E2000FFF778FD02E00020BDE8F0810120BDE859
:102E3000F08100BF68170010701700106C170010A9
:102E4000014B1860704700BF681700107047000002
:102E500010B50E4CFFF736FE0D48FFF725FD00209C
:102E60002146FFF701FD80202146FFF7FDFC0020F1
:102E70004021FFF7D9FC80204021FFF7D5FC00203E
:102E80000449054AFFF70AFF012010BDD52B0000B9
:102E90004D2E0000FD2C00007117001038B50E4DAE
:102EA0000E4B0024E81A8510AC4205D00B4951F8AE
:102EB000242090470134F7E7FDF732F90849094A21
:102EC000541AA5100024AC4205D0054B53F8240039
:102ED00080470134F7E738BDB4320000B432000057
:102EE000B4320000B432000010B50023934203D086
:102EF000CC5CC4540133F9E710BD034613F8012B31
:102F0000002AFBD1181A0138704700000118000987
:102F1000001201140007000F01160115000600053C
:102F2000001000155B42534C5F53595345585D20C8
:102F300065787065637465642025642C20676F7400
:102F40002025642062797465732028726574727913
:102F5000290A006572617365206661696C65642089
:102F6000666F72203078253038783A20636F646558
:102F70002025640A0077726974655F64617461205A
:102F80006661696C656420666F7220307825303820
:102F9000783A20636F64652025640A00FF0F000003
:102FA000FF1F0000FF2F0000FF3F0000FF4F000049
:102FB000FF5F0000FF6F0000FF7F0000FF8F000039
:102FC000FF9F0000FFAF0000FFBF0000FFCF000029
:102FD000FFDF0000FFEF0000FFFF0000FF7F0100A8
:102FE000FFFF0100FF7F0200FFFF0200FF7F0300E1
:102FF000FFFF0300FF7F0400FFFF0400FF7F0500C9
:10300000FFFF0500FF7F0600FFFF0600FF7F0700B0
:10301000FFFF07000000000000100000002000007B
:103020000030000000400000005000000060000080
:1030300000700000008000000090000000A0000070
:1030400000B0000000C0000000D0000000E0000060
:1030500000F00000000001000080010000000200FC
:103060000080020000000300008003000000040054
:10307000008004000000050000800500000006003C
:10308000008006000000070000800700200000000C
:103090004515000021000000451500002200000039
:1030A0004515000023000000451500000000000049
:1030B000000000000101020100000000000000000B
:1030C00000000000000002030301020303030303E6
:1030D00002020301284552524F523A20737472691A
:1030E0006E672070617373656420746F204D494F63
:1030F0005333325F4D4944495F53656E64446562A2
:1031000075674D6573736167652829206973206C45
:103110006F6E676572207468616E20313030206395
:1031200068617273210A005B4D494F5333325F4D22
:103130004944495F526563656976655F48616E64BD
:103140006C65725D2054696D656F7574206F6E20BB
:10315000706F7274203078253032780A0020253064
:10316000325800202020002530385820004D494F8B
:10317000533332004D4248505F434F52455F4C50ED
:10318000433137004C504331377878002530387858
:10319000003F002564004D494F53333220426F6F8A
:1031A000746C6F6164657200286329203230313499
:1031B00020542E204B6C6F7365005B4D494F533389
:1031C000325F4D4944495F53595345585F436D64DD
:1031D0005F44656275675D20636F6D6D616E64202D
:1031E00068616E646C6572206E6F7420696D706CBE
:1031F000656D656E746564206279206170706C69BC
:10320000636174696F6E0A0002020202010102002A
:10321000F000007E32FEFF006D696469626F782EF7
:103220006F7267001201000200000040C016FE032A
:103230001010010203010902650002010080320939
:10324000040000000101000209240100010900013D
:1032500001090401000201030002072401000141E9
:1032600000062402010100062402020200092403D0
:103270000103010201000924030204010101000904
:103280000502024000000000052501010109058139
:10329000024000000000052501010300000001407C
:1032A00000C0094000C0004000800940286E756CD5
:1032B0006C2900000000000010FF100000C2010097
:1032C00000000800000000000000000000000000F6
:1032D00000000000000000000000000000000000EE
:1032E00000000000000000000000000000000000DE
:1032F00000000000000000000000000000000000CE
:1033000000000000000000000000000000000000BD
:1033100000000000000000000000000000000000AD
:10332000000000000000000000000000000000009D
:10333000000000000000000000000000000000008D
:10334000000000000000000000000000000000007D
:10335000000000000000000000000000000000006D
:10336000000000000000000000000000000000005D
:10337000000000000000000000000000000000004D
:10338000000000000000000000000000000000003D
:10339000000000000000000000000000000000002D
:1033A000000000000000000000000000000000001D
:1033B000000000000000000000000000000000000D
:1033C0000000000000000000FFFFFFFFFFFFFFFF05
:1033D000FFFFFFFFFFFFFFFFFFFFFFFFFFFFFFFFFD
:1033E000FFFFFFFFFFFFFFFFFFFFFFFFFFFFFFFFED
:1033F000FFFFFFFFFFFFFFFFFFFFFFFFFFFFFFFFDD
:10340000FFFFFFFFFFFFFFFFFFFFFFFFFFFFFFFFCC
:1040000000800010614F00005D4F00001946000065
:104010005D4F00005D4F00005D4F0000000000009C
:104020000000000000000000000000001D4C000027
:104030005D4F0000000000008D4C0000C94C0000E6
:104040005D4F0000FD790000117A0000297A000020
:104050005D4F00005D4F0000D98300005D4F000000
:10406000398400005D4F0000C9850000D58500003F
:104070005D4F00005D4F00005D4F00005D4F000090
:104080005D4F00005D4F00005D4F00005D4F000080
:104090005D4F00005D4F00005D4F00005D4F000070
:1040A000657C00005D4F0000396B00005D4F000033
:1040B0005D4F00005D4F00005D4F00005D4F000050
:0C40C0005D4F00005D4F00005D4F0000F0
:1040CC0070B54A4CF0252570432565707525A57093
:1040DC000025E57018252571454D6D5C092A7FD8A2
:1040EC00DFE802F005121F27333F4854606C0E26A0
:1040FC007143404E03F07F02725403F00F03120918
:10410C006571A371E27167E00E225143394E02359D
:10411C0072187354D378657103F00F03A37113797C
:10412C0057E0344C0E2202FB014103F004034B70A8
:10413C0056E0304E0E2202FB016103F00F030235F4
:10414C00CB70A37165710B7943E02A4E0E2202FBF2
:10415C00016103354B7103F00F03A37165718B790A
:10416C0037E0244E0E2202FB016103358B71657121
:10417C004A791FE01F4E0E2202FB016103F00F0370
:10418C000435CB71A3716571002324E0194E0E2206
:10419C0002FB0161063503F00F02CB726571A2714F
:1041AC001B0918E0134E0E2202FB016107354A7BF6
:1041BC000B73657102F00F02A2710AE00D4A0E2614
:1041CC0006FB01214B7303F00F030735A3710B7B27
:1041DC00657103F00F03E371F7232372092200E0EA
:1041EC0005220249BDE8704001F0ACBB0000001094
:1041FC0000C00720310900104FF0FF3003F01EB94A
:10420C0070477047704737B50B0E0D460193C1F3DD
:10421C00074403F037F9C143012003F01FF905F0FF
:10422C000F02A2F108010129019B06D82946212081
:10423C0003B0BDE8304001F039BB0B2A57D1A4F1D3
:10424C003201272953D8DFE801F01414141418187C
:10425C0018181E1E1E1E242424242A2A2A2A303012
:10426C003030363636363C3C3C3C42424242484882
:10427C0048482120C9B2002234E0A4F136012120A3
:10428C00C9B201222EE0A4F13A012120C9B20222C6
:10429C0028E0A4F13E012120C9B2032222E0A4F1BE
:1042AC0042012120C9B204221CE0A4F146012120C4
:1042BC00C9B2052216E0A4F14A012120C9B2062296
:1042CC0010E0A4F14E012120C9B207220AE0A4F1AA
:1042DC0052012120C9B2082204E0A4F15601212088
:1042EC00C9B2092203B0BDE83040FFF7E9BE03B004
:1042FC0030BD7047704770477047704708B500F085
:10430C00DBFFBDE80840FFF7F5BF000007B500F084
:10431C00A9FA0190012101A800F082FB00F0A2FA99
:10432C00019A431F9A4238BF0190074800F05CFF86
:10433C00064801F011F9064803F095FB01F0E8FF7F
:10434C00FFF75FFFE6E700BF0343000005430000F3
:10435C000743000007B500F085FA0190012101A880
:10436C0000F05EFB00F07EFA019A431F9A4238BFC0
:10437C00019001F05FFC034801F0F4FEFFF742FFEF
:10438C00ECE700BF1342000030B5002085B002F00E
:10439C001DFB002003F04EFB002002F005FA00206C
:1043AC0003F03AF8002002F0B3FE002000F05CFEAF
:1043BC00002000F0EBFE002000F046FF002000F093
:1043CC0051FF002002F0ECF9002003F049FB002023
:1043DC0002F0E3F9002001F001FA002003F0F8FBF1
:1043EC00002001F05BFF002001F05EFF002001F0D7
:1043FC0059F9012001F004F9002004F0D9FF002044
:10440C0001F0FEF805F0ECFBFFF7F6FE01F0C4F945
:10441C004FF4FA644FF47A7003F016FB013CF9D1B7
:10442C000325234600950194029403940A494FF402
:10443C0080720A4800F01CF909494FF48072234637
:10444C000095019402940394064800F011F900F0D1
:10445C00DBF9204605B030BD819C000019430000FB
:10446C007C9C00006143000008B502F0A7F9FFF73F
:10447C0040FFBDE80840014800F04CBE0943000075
:10448C00FFF7BEBE10B5002401346422B4FBF2F376
:10449C0002FB13430BB901F0CDFB094801F062FE9E
:1044AC0042F21072B4FBF2F302FB1343002BEBD17C
:1044BC0002F0E8FFC143012002F0D0FFE4E700BFA7
:1044CC001342000010B5036888B000934368384C61
:1044DC00019383680293C36803930369049343694C
:1044EC00059383690693C36932480793069901F0D3
:1044FC0055FB204601F052FB2F4801F04FFB2046A4
:10450C0001F04CFB00992D4801F048FB01992C4817
:10451C0001F044FB02992B4801F040FB03992A4817
:10452C0001F03CFB0499294801F038FB0599284817
:10453C0001F034FB0699274801F030FB0799264817
:10454C0001F02CFB254B2648196801F027FB254B65
:10455C002548196801F022FB244B2548196801F005
:10456C001DFB244B2448196801F018FB234B2448ED
:10457C00196801F013FB6FF07F4001F02BF900205C
:10458C0001F02AF9002001F03BF801F089F8002035
:10459C00014601F03BF81B4801F0E0F80121002036
:1045AC0001F034F80699184801F0E4F8FFF76AFFB7
:1045BC00F39C0000DD9C0000079D00001B9D00008B
:1045CC00269D0000319D00003C9D0000479D000091
:1045DC00539D0000E89C00005E9D000038ED00E05B
:1045EC006A9D000028ED00E0779D00002CED00E0B6
:1045FC00849D000030ED00E0919D00003CED00E05A
:10460C009E9D0000AB9D0000BC9D00001EF0040FA1
:10461C000CBFEFF30880EFF30980FFF753BF70472F
:10462C000E4B10B51A68044650600D4A1268904241
:10463C0007D2BDE810400B4A10681968043100F02D
:10464C00A8BA094A10681968043100F0A2FA074B9D
:10465C001A68944238BF1C6010BD00BFB80400102B
:10466C00D0040010D40400101804001004C007205B
:10467C002DE9F84F81460AAE48208A4696E8C008D4
:10468C001546984600F0CCFB0446002800F09B80B1
:10469C00BBF1000F03D1A80000F0C2FB00E05846AC
:1046AC00206318B9204600F075FB8CE0B346AD00D2
:1046BC002A46A52105F0BAFA236B51461022043D77
:1046CC0004F134001D4405F0C1FA042E28BF4FF04C
:1046DC00040B002304F1040A84F843305046C4F858
:1046EC002CB0C4F844B000F044FA04F1180000F007
:1046FC0040FA25F00705CBF105032461A361646240
:10470C0028464946424600F077FA206007B13C60E3
:10471C0000F09EFA2E4B2F4D1A68DFF8E480013220
:10472C001A602F6817BB2C601B68012B26D108EB75
:10473C000700143700F012FA642FF8D1DFF8C49098
:10474C00254F484600F00AFA384600F007FA23488D
:10475C0000F004FA224800F001FA224800F0FEF9B9
:10476C00214BC3F80090214B1F6007E0204B1B68C6
:10477C0023B92B68DB6AB34298BF2C601D4AE36AED
:10478C00116801248B421C4988BF13600A6804FA23
:10479C0003F001320A6019490A68024314200A60C6
:1047AC0000FB0380514600F0E7F900F05FFA104B74
:1047BC001B682BB12B68DB6AB34201D200F038FACC
:1047CC002046BDE8F88F4FF0FF30BDE8F88F00BFF2
:1047DC00F8040010B804001038040010BC040010D9
:1047EC00240400100404001018040010D404001059
:1047FC001C040010FC040010DC040010D804001091
:10480C004C040010E004001030B5002485B0009476
:10481C000194029403940B480B494FF48072234685
:10482C00FFF726FF012805460AD100F009FA074BCD
:10483C001D60074B1C6005B0BDE8304000F05ABA53
:10484C0005B030BDA54A0000C99D00001C04001035
:10485C00D0040010024A136801331360704700BF84
:10486C00B004001010B500F0F3F9034B1C6800F015
:10487C00FDF9204610BD00BFD0040010F8B52E4B3A
:10488C001B68002B49D12D4B2D4D1A681E46013249
:10489C001A601A68A2B92B4B2B4A19681068186059
:1048AC0011602A490A6801320A601A68126812B942
:1048BC004FF0FF3303E01B68DB68DB685B682B6041
:1048CC0032682B689A422ED31E4B1A68126812B9A2
:1048DC004FF0FF3306E01B68DB68DC683268636806
:1048EC009A4201D22B601EE0271D384600F069F970
:1048FC00A36A1BB104F1180000F063F91448E16AD3
:10490C00026801238B4013430360124B142000FBFD
:10491C000130394600F030F9D6E70F4A13680133FD
:10492C001360FFF7A1FD0C4B1B681BB9BDE8F840E9
:10493C00FFF79ABDF8BD00BFB0040010D004001002
:10494C0004C0072018040010D4040010B404001094
:10495C00D80400104C0400100004001070B500F0D6
:10496C0077F9274B1A68013A1A601C680CB10024BD
:10497C0041E0244B1B68002BF9D0234B1A68FAB189
:10498C00DB68DD682E1D05F1180000F01AF93046C1
:10499C0000F017F91D48E96A026801238B401343A4
:1049AC0003601B4B142000FB0130314600F0E4F88F
:1049BC00184BEA6A1B68DB6A9A4228BF0124DCE7C1
:1049CC00154B1A681D4642B12B68134C3BB1FFF7CF
:1049DC0055FF2368013B2360F6E7012C06D10F4BF2
:1049EC0000221A60012400F023F904E00B4B1B6831
:1049FC00012BBCD1F3E700F039F9204670BD00BFA4
:104A0C00B0040010F8040010BC040010D80400100E
:104A1C004C040010B804001000040010F404001042
:104A2C0038B505460C46FFF715FF184A2B68116878
:104A3C001C44994202D29C4208D201E09C4207D30A
:104A4C0013689C4294BF0023012302E0002300E082
:104A5C0001232C608BB10E4D2868043000F0B1F8A6
:104A6C0040B92B680B49D86A0A680123834022EAB3
:104A7C0003030B602046FFF7D3FDFFF76FFF18B958
:104A8C00BDE8384000F0D4B838BD00BFD0040010E9
:104A9C00B8040010D804001008B5154C2368F3B105
:104AAC00144DFFF7D7FE2E68FFF758FF002EF4D0F9
:104ABC0000F0CEF8EB68DD68281D00F082F80E4A95
:104ACC001368013B13602368013B236000F0CEF8B0
:104ADC00286B00F05FF9284600F05CF9DDE7074B26
:104AEC001B68012B01D900F0A3F8FFF7C9FCD4E730
:104AFC002004001024040010F80400104C040010D2
:104B0C00114B30B51B6813B10122104B1AE0104B3E
:104B1C001B68B3FA83F3DBB2C3F11F03142000FB51
:104B2C0003F20C498C18656808326D680A4495428A
:104B3C0000FB031308BF6A68656008BF62605B68AE
:104B4C00DA68054B1A6030BDB0040010F404001094
:104B5C00D80400104C040010B804001000F1080335
:104B6C004FF0FF3282604360C36003610023036037
:104B7C00704700230361704743685A688B604A6032
:104B8C005A689160596003684160013308610360A1
:104B9C0070470A6810B5531C01D1036907E000F196
:104BAC0008035C682468944201D85B68F9E75A688A
:104BBC004A6091608B60596003680861013303603F
:104BCC0010BD436882689A608268536003695968B3
:104BDC00814208BF5A60002202611A68013A1A60C9
:104BEC001868704703480068006880F3088862B64C
:104BFC0000DF00BF08ED00E04FF0807300E90A0011
:104C0C00002340F80C3C40F8202C40387047000042
:104C1C00064B19680868B0E8F00F80F309884FF06C
:104C2C00000080F311884EF00D0E7047B804001090
:104C3C00024B4FF080521A60704700BF04ED00E049
:104C4C00EFF311804FF0BF0181F311887047002002
:104C5C0008B5FFF7F5FF024A13680133136008BD6E
:104C6C0008C0072080F3118870470000034B1868B8
:104C7C000138186008B9FFF7F5BF704708C0072066
:104C8C00EFF309800C4B1A6820E9F00F10602DE946
:104C9C0008404FF0BF0080F31188FFF731FF4FF051
:104CAC00000080F31188BDE8084019680868B0E876
:104CBC00F00F80F309887047B804001008B5064B54
:104CCC004FF080521A60FFF7BBFFFFF7D7FDBDE82E
:104CDC0008400020FFF7C6BF04ED00E0034A044B78
:104CEC001A60072243F8042C704700BFBFD40100A0
:104CFC0014E000E0094B10B51A68002442F47F025E
:104D0C001A601A6842F07F421A60FFF7E7FF044B03
:104D1C001C60FFF767FF204610BD00BF20ED00E0D0
:104D2C0008C0072010B50A4B03EBC002D188948849
:104D3C0003EBC1018C80D188928803EBC202D18035
:104D4C0033F83020C2F30E0223F8302010BD00BF20
:104D5C0020C0072038B50E4C054634F8300034F925
:104D6C003030002B12DAFFF7DDFF34F8353034F831
:104D7C003330C3F30E0304EBC3035D8034F83530DA
:104D8C0034F83330C3F30E0324F8353038BD00BF8C
:104D9C0020C0072038B5044600283BD01E4DFFF735
:104DAC0059FD641BC4F3CF041C4935F834300A6830
:104DBC00E31A134420460B60FFF7CCFF05EBC4034A
:104DCC00598835F93120002A0EDA35F834206FEA8B
:104DDC0042426FEA524225F831205A8835F8343075
:104DEC0005EBC3056A8011E0A88882B205EBC2020C
:104DFC00D480002298809A71DA71AC8035F8343006
:104E0C006FEA43436FEA534325F83430BDE838402A
:104E1C00FFF7A4BD38BD00BF20C0072078090010E3
:104E2C002DE9F0410446002800F08980FFF712FDBF
:104E3C00444E042C84BF611FC908B6F804E084BF3B
:104E4C0002311FFA81F8744647F6FF7198BF4FF094
:104E5C000108002306EBC40292883A4F6AB137F876
:104E6C003430C3F30E031B1B9BB2434503D38B425D
:104E7C003CBFA64619461446ECE747F6FF72914232
:104E8C0018BF744636F8345018BF0B46C5F30E05E0
:104E9C002146EDB1434503D12046FFF743FF43E0E4
:104EAC00C8EB03039BB2234407EBC30227F8335030
:104EBC0054809CB237F83130C3F30E0307EBC303B5
:104ECC005C806FEA44436FEA534327F831302BE0A0
:104EDC0040F2FE4304EB08029A4209DD41462246A9
:104EEC00194800F05BFEFFF739FD2846BDE8F0815C
:104EFC0044B901237C707C711C46144A02213B701E
:104F0C003B71116006EBC401CA8804EB080306EB85
:104F1C00C20293800A6806EBC30046F833204A6845
:104F2C00426026F834304480084B06EBC404196800
:104F3C0041441960FFF712FD201DBDE8F081BDE86A
:104F4C00F08100BF20C00720F39E000078090010FC
:104F5C00FEE70000684620F007018D4601B50E4AB9
:104F6C000E4B0F498B4204D252F8041F43F8041B1A
:104F7C00F7E70C4B0C4A934203D2002243F8042B64
:104F8C00F8E70A4B0A4A934203D2002243F8042B57
:104F9C00F8E7FFF7F9F9FEE7DCA4000000C00720F2
:104FAC0020C0072000000010E00C001020C00720DB
:104FBC0020E9072070470000F8B500210124224B9E
:104FCC000A4620461C7001F06BFF21462046002249
:104FDC0001F066FF22462046002101F061FF2046C9
:104FEC0021462246194C01F05BFF27780023BB4277
:104FFC000FDA1748174D184EC25C15F803E0F15C38
:10500C008EEA02020A43F254EA5CD2B2C254013371
:10501C00EDE7124B1B6803B19847114B1B7893B10A
:10502C00104A13787BB1013B247813700023A34200
:10503C0009DA09490648CA5CC55C6A40C2540022B8
:10504C00CA540133F3E7F8BD06050010050500103E
:10505C00AC0900109C0900107C0900100005001020
:10506C00040500100705001010B568BB184B102282
:10507C001860184B1A70184B0024184A1C54FF2344
:10508C001354174A1354174B1C5401301028F2D1E7
:10509C00154B01201C70154B214602461C7001F06B
:1050AC00FFFE01200246014601F0FAFE022101201A
:1050BC0001F0A2FD03210622012001F055FF0C4B4B
:1050CC0001221A70204610BD4FF0FF3010BD00BFFA
:1050DC0000050010050500108C090010AC0900102B
:1050EC009C0900107C090010040500100705001035
:1050FC0006050010014B1878704700BF050500101D
:10510C00024B00201A78024B1A70704704050010ED
:10511C000705001037B5174D2B7823B3164B1A78AB
:10512C0022B300241C70154B214618602246012026
:10513C0001F0B6FE01200146224601F0B1FE01202D
:10514C002146024601F0ACFE01200146024601F068
:10515C00A7FE0B4A2B78009201200A490A4A02F05A
:10516C0019F8204604E04FF0FF3001E06FF0010029
:10517C0003B030BD05050010060500100005001039
:10518C00C54F00008C0900109C09001050B9034653
:10519C00064AFF21D154064A0020D0540133102B6B
:1051AC00F6D170474FF0FF30704700BFAC090010CC
:1051BC007C09001070B505460E46FFF79BFF854233
:1051CC000DD201F0CDFC074B585D595D00EA060489
:1051DC0021EA0601595501F0D7FC204670BD00208C
:1051EC0070BD00BF7C0900102DE9F8430746FFF79E
:1051FC0081FF064610B30FB30024B4421BDA2046DD
:10520C00FF21FFF7D7FF804698B14FEAC40900256C
:10521C0048FA05F3DB0709D50A4B05EB0900195DC4
:10522C00294101F00101B847FFF76AFF0135082D4C
:10523C00EED10134E1E70020BDE8F8834FF0FF30F8
:10524C00BDE8F883AC09001038B90346044A0020C5
:10525C00D0540133102BF9D170474FF0FF30704709
:10526C008C09001000BB124A002302F82030114AAE
:10527C0012F8301041F00F0163F3041102F83010F2
:10528C0002EBC002D178013001F0F00163F3071199
:10529C00D1705179402863F30301537093701371EB
:1052AC005171E0D1184670474FF0FF30704700BF86
:1052BC00C0090010C00A00102DE9F74F0025DFF8D7
:1052CC0094B21BF82530D946002B00F035819E4F47
:1052DC00EC003A1993783E460BB1013B93704FEAC0
:1052EC00850809EB080293788BB317F835E092F830
:1052FC0001A070466EF38300013B4FEA5A1A07F87F
:10530C0035009248DBB20AF0060203219140C05CE2
:10531C00C9B208421BD0184601920093FFF74AFF0E
:10532C00009B019A98B18A491AF0010FCB5C43FAA1
:10533C0002F303F003031EBF5A0002F0020242EA1A
:10534C00530317F8352063F3010207F8352017F8DB
:10535C003510C1F3810201F003039A4200F0EC8096
:10536C0001F00F02012A1BF8253002D113F0100FA7
:10537C000DE0072A02D113F0200F08E00E2A02D10B
:10538C0013F0400F03E0082A65D113F0800F00F0F2
:10539C00D380C90604D432199278E02A00F2CC806A
:1053AC00FF2B0AD1331917F83520DB7802F00F02E6
:1053BC0003F00F039A4200F0BF8017F83530321912
:1053CC0043F0100307F8353091781379C844C91AA3
:1053DC001429C4BF1433937098F8013013F00302EE
:1053EC0017D0022A28D131198A78C3F3820302F02C
:1053FC00C002C3F1070332FA03F391F9012008BF8D
:10540C000123D31A6FF045008342B8BF03464B709B
:10541C0016E0C3F38203DB4331194A7902F00F0221
:10542C00D31842BF4A7802F1FF324A7032195179CF
:10543C0063F30301517103E032195378013B53704C
:10544C003444A3782371FF23A37017F83520E37835
:10545C0062F303036FE0022A02D113F0010F0DE097
:10546C000B2A02D113F0020F08E00D2A02D113F01F
:10547C00040F03E0042A5FD113F0080F5CD0CA06B6
:10548C0003D532199278E02A56D8FF2B08D117F899
:10549C0035303219D27803F00F03B3EB121F4BD017
:1054AC0017F8353032196FF3041307F8353091784B
:1054BC001379C844C91A1429C4BF1433937098F8CB
:1054CC00013013F0030215D0022A26D131198A7843
:1054DC00C3F3820302F0C002C3F1070332FA03F3F1
:1054EC0091F9012008BF01231344462BA8BF462382
:1054FC004B7016E032195179C3F3820301F00F019E
:10550C0001330B440F2BC2BF51780131517032194A
:10551C00517963F30301517103E03219537801336C
:10552C0053703444A3782371FF23A37017F83520EC
:10553C00E37862F30713E3700135402D7FF4BFAEBF
:10554C00002003B0BDE8F08FC00A00107C090010E9
:10555C00AC090010C009001070B50546B0B10024AC
:10556C0001F0FEFA0B4B03EBC4035E783EB1002254
:10557C005A7001F009FB204671B2A84701E001F016
:10558C0003FB0134402CEBD1002070BD4FF0FF30F9
:10559C0070BD00BFC00A0010134A144B116819608B
:1055AC005168128959601A814FF47F521278422A3D
:1055BC0017D143F6C17212781A7043F6C272127880
:1055CC005A7043F6C37212789A7043F6C47212780A
:1055DC00FF2A08BF4FF480729A8043F6C572127886
:1055EC00DA800020704700BFB09F0000C20C001092
:1055FC00024B93F90000C00F704700BFC20C0010A3
:10560C00014B187000207047140500100B4B10B59F
:10561C000B4A18800B4B1980938813B1DBB292792B
:10562C0001E0082206234343074C4A432380074BDF
:10563C00BDE810401A8004F03BBA00BFCC0C00103F
:10564C0008050010D20C0010D40C0010C00C001077
:10565C00024B1880024B198004F0C2B9D40C001014
:10566C00C00C00100023C15C034A99540133042B75
:10567C00F9D10020704700BFCE0C00108278074B88
:10568C00043202441A6002789A804278DA80C27836
:10569C0000201A8101229A72704700BF0805001081
:1056AC0004F004B913B50446F0B9FFF775FF104BBD
:1056BC009C80104B1868019001A8FFF7D3FF4CF2A7
:1056CC00503002F0C1F9204603F072FE00280DDBC9
:1056DC00FFF7E6FF21462046FFF798FF20462146BC
:1056EC00FFF7B6FF204601E04FF0FF3002B010BDCF
:1056FC0008050010159F00007FB5154B064693F961
:10570C000030002B1ADA134CA38813B94FF0FF307A
:10571C001CE001ABE58894E8070083E807002189C9
:10572C00EA084A4306FB0200ADF80A500190ADF8B6
:10573C000C1093E8070004F0E7F901E003F0B6FF62
:10574C000028A1BF044A13880133138004B070BD34
:10575C00C20C001008050010CC0C001038B5451E0A
:10576C00002415F8010F18B1FFF7C6FF0443F8E742
:10577C00204638BD0FB400B593B014AA52F8041BE0
:10578C0002A8019203F067F802A8FFF7E7FF13B035
:10579C005DF804EB04B0704738B50B4B0025294677
:1057AC0028461D70FFF732FF04460848FFF7D6FF66
:1057BC00012104432846FFF729FF04430448FFF75F
:1057CC00CDFF204338BD00BF14050010919F000091
:1057DC009F9F000004F092B904F093B938B50546C8
:1057EC00002846D1244A10231370244A1370244BEA
:1057FC001860244B1860244B1860244B1860244B01
:10580C001860244B186002F0FBFAC40F284600F015
:10581C00FBFD00284FF00000B8BF44F0020400F07C
:10582C00B4FF00284FF00000B8BF44F0040400F0AF
:10583C00A1FF194A00231370184A00281370184A44
:10584C00B8BF44F00804137043F6D0731B78422B96
:10585C0005D143F6D1731B78190658BF1370114B41
:10586C0000221A80104B00200021C3E90001604285
:10587C0038BD4FF0FF3038BD0CC007200EC00720DC
:10588C002005001018050010480500104C050010EC
:10589C0038050010240500102805001030050010F4
:1058AC00290500102A0500104005001010F0F00F1B
:1058BC00F8B504460D4604D101280CBF1E4B1F4BF6
:1058CC001C781F4B04F00F071B68FEB2C3B904F021
:1058DC00F004202C1CD008D8102C29D166F3071505
:1058EC002846BDE8F84002F0F3BA302C18D0502C02
:1058FC001ED166F307152846BDE8F84000F03FBFFF
:10590C0066F307152046294698470028DFD0F8BDD6
:10591C0066F3071538462946BDE8F84000F02ABE64
:10592C0066F3071538462946BDE8F84000F032BF4B
:10593C004FF0FF30F8BD00BF0EC007200CC0072091
:10594C00180500102DE9F04107460E46904600243C
:10595C00444539D2C4EB0803022B0FD0032B1BD0C8
:10596C00012B1BD1052363F30305335D013463F372
:10597C000F256FF317456FF31F651EE0062363F3C6
:10598C000305325D631CF35C62F30F2563F317456B
:10599C0002346FF31F6510E0072300E0042363F368
:1059AC000305335D321963F30F255278A31CF35CA6
:1059BC0062F31745033463F31F6538462946FFF736
:1059CC0075FF0028C4DA00E00020BDE8F08100007B
:1059DC0000B5F023A1B08DF8003000238DF8013014
:1059EC008DF802307E238DF8033032238DF804308D
:1059FC000E4B01391B780DF107028DF805300F2382
:105A0C008DF8063011F8013F2BB102F8013B0DF176
:105A1C006B039A42F6D16946F72302F8013B521AFE
:105A2C00FFF790FF21B05DF804FB00BF29050010C3
:105A3C0000B5F02389B08DF8003000238DF80130CB
:105A4C008DF802307E238DF8033032238DF804302C
:105A5C00084B8DF806101B788DF807208DF8053053
:105A6C006946F72309228DF80830FFF76BFF09B060
:105A7C005DF804FB290500102DE9F04104230024F6
:105A8C0063F303046FF00F0363F30F246FF31744F6
:105A9C006FF31F648846214617460646FFF706FF3C
:105AAC007E2363F30F24322363F317440B4B054619
:105ABC001B78304663F31F642146FFF7F7FE0D2376
:105ACC0063F30F2468F3174467F31F6405432146FF
:105ADC003046FFF7EBFE2843BDE8F08129050010A6
:105AEC002DE9F84380460F4691464AB30D460026F1
:105AFC00EB1B4B4525D2042363F303042B7833B102
:105B0C0003F07F0363F30F246B781BB90DE063F391
:105B1C000F240AE003F07F0363F31744AB7833B12F
:105B2C0003F07F0363F31F6403E06FF317446FF319
:105B3C001F6440462146FFF7B9FE03350643D7E7FD
:105B4C0016463046BDE8F88308B50021052363F3FB
:105B5C0003016FF0080363F30F2189B2FFF7A6FE70
:105B6C0008BD0000F8B5074604F068F80A4C064674
:105B7C00402120783A78FFF77FFF012E054605D9A2
:105B8C002078791C721EFFF7ABFF05432078FFF7D6
:105B9C00DBFF2843F8BD00BF0EC007200FB410B5C3
:105BAC00A2B0249804F04AF8642801D90E4813E0F6
:105BBC0002AC25AA24992046019202F04CFE204604
:105BCC0004F03CF80023834205D0E25C02F07F0233
:105BDC00E2540133F7E72046FFF7C4FF22B0BDE8DB
:105BEC00104004B0704700BFF49F00000C4A10B581
:105BFC00137804461B0707D50A4B1B78834201BF59
:105C0C0000231370084A1370084B1B680BB1204615
:105C1C00984721460648FFF7C1FF002010BD00BF82
:105C2C0030050010280500101C0500104C05001054
:105C3C0047A0000010B502F08DF9044600F008FCF6
:105C4C00044300F0A5FD044300F097FD4FF6FF71EF
:105C5C00034A204313888B421CBF0133138010BDB1
:105C6C002A050010024B1B6803B1184718467047F1
:105C7C0020050010134B2DE9F341804618681E4691
:105C8C00E0B100242546C1F307238DF80430C1F39D
:105C9C0007438DF80530C1F307638DF806300A4BC6
:105CAC0001F00F015F5CBD4207DA01AA515D336858
:105CBC004046984701350443F5E7204602B0BDE85D
:105CCC00F08100BF20050010E49F000001281DBFDB
:105CDC00024B187000204FF0FF3070470EC00720A9
:105CEC0070B5584E0B4635788AB00D2D04461146CA
:105CFC0057D001D83DB199E00E2D00F0A0800F2DAA
:105D0C0000F0888092E0504A1BB1012B03D1117036
:105D1C0095E0137093E01378052B28D010D8022B44
:105D2C001FD003D8012B38D148491BE0032B1CD0C2
:105D3C00042B32D100F0D6FD45490246684623E0DB
:105D4C00082B26D006D8062B19D0072B25D100F00E
:105D5C00E0FD16E0092B1ED07F2B1ED100F036FD86
:105D6C006DE03C49FFF734FE69E03B49FAE76846D1
:105D7C0000F0D2FD0028204609DA3849F2E700F09D
:105D8C00C5FD02466846364902F056FD2046694676
:105D9C00E8E73449E6E73449E4E720460E210D22D2
:105DAC0041E0324D13B1012B03D014E0FF232B70D3
:105DBC0045E02B78FF2B01D12A7040E01BB1012B61
:105DCC003DD12B4B00E02B4B1B68002B37D02A4AC4
:105DDC001078984733E02A789AB90F21FFF728FEFC
:105DEC002B7863BB234B1B684BBB244B20461D7885
:105DFC00FFF76CFF2248FFF7B5FE2846FFF766FF5A
:105E0C001DE0012A02D11A4B1B68C3B920460E2192
:105E1C00102208E01B4A0BB1012B01D153600EE09C
:105E2C00526862B92946FFF703FE08E00E210A46C4
:105E3C002046FFF7FDFD134A00231370337000203A
:105E4C000AB070BD1C0500102C0500108DA00000C0
:105E5C00C49D000094A00000A4A00000ACA0000011
:105E6C00AEA00000919F00009F9F00000DC0072076
:105E7C002405001038050010280500100EC007205E
:105E8C00B1A0000030050010F72938B50A4650D8EB
:105E9C002A4D297801F0080303F0FF041BB1284BAD
:105EAC001B78834247D1A0F11103062B43D9244B15
:105EBC00187024BB2B7803F00703042B03D821485C
:105ECC00C05C904207D101F00701052908D11E4999
:105EDC000978914204D01D4B00202870187038BDF1
:105EEC002978013303F0070363F30201052B134AEE
:105EFC0029701ED9137843F00803137019E01406A7
:105F0C0007D5F72AE7D1CB06E5D50221FFF7E8FE46
:105F1C00E1E701F0100101F0FF0439B92B782146BB
:105F2C0043F010032B70094B1A7000E00121FFF7AE
:105F3C00D7FE002038BD4FF0FF3038BD30050010C3
:105F4C002805001007A10000290500101C050010F1
:105F5C002DE9F74F01F00F08174608F1080202F07F
:105F6C000F02062A04460E46C1F30723C1F3074A63
:105F7C004FEA116902D8002F42D1E7E0F02B05D08F
:105F8C0008F10C0202F00F02032A25D8714AD2E95B
:105F9C000001014320D104F0F00030284FF0000143
:105FAC000BD0502811D0102816D16B48018004F06A
:105FBC000F000121814011800EE06748018004F040
:105FCC000F0001218140518006E06348018004F0FC
:105FDC000F00012181409180A8F102020D2A00F2EC
:105FEC00B580DFE802F00909074C4E4EB3B3B3B3EA
:105FFC00B3B3B307F72B06D9002F00F0A7802046C8
:10600C0026F0F00192E06FF307161946204606F0D1
:10601C000F080193FFF738FFB8F10F0F019B08D061
:10602C0051462046FFF730FF20464946FFF72CFF2C
:10603C00019B4A4A1278100700F18880DFF820B1E2
:10604C00DBF80020002A73D0204619469047B8F19F
:10605C000F0F05460DD0DBF800305146204698470F
:10606C00DBF80030804649462046984748EA000055
:10607C000543EDB2002F69D0002D67D154E0F72B0A
:10608C00BAD8A8F1040818F0FF08DFF8D0B052D045
:10609C00194620460193FFF7F7FE9BF80020019B61
:1060AC0012F0080F08D12E4A156835B11946204652
:1060BC00A847019BC5B200E00025B8F1010F3CD9FF
:1060CC0051462046FFF7E0FE9BF80030190707D435
:1060DC00234B1B6823B12046514698472843C5B231
:1060EC00B8F1020F10D020464946FFF7CDFE9BF8C1
:1060FC0000301A0727D41A4B1B6803B320464946B5
:10610C009847CA462843C5B2BAF1F70F04D1114BD0
:10611C0000200021C3E900019BF800301B0715D4B7
:10612C00A7B19DB965F3071620463146B8470DE077
:10613C00002FF9D10AE0434645469A46E4E7B9F107
:10614C00F70FEDD1E3E7B9F1F70FE0D0002003B082
:10615C00BDE8F08F400500102A0500103005001036
:10616C00480500102DE9F041064688B002A801F060
:10617C00C7FE002808DB9DF808000299000932468A
:10618C001030FFF7E5FEF1E7414D02AC0FCD0FC427
:10619C0095E8030084E803009DF8083053B300240D
:1061AC002546274608AB03EBC40313F8183C13B978
:1061BC0005B31C461D4608AB03EBC40313F8188C3F
:1061CC0001A953F8143C08F00F00984710F10A0F7E
:1061DC0003D14046FFF70AFD08E0002806DB4046E5
:1061EC000199324601370135FFF7B2FE092F04F150
:1061FC000104D7DD02A800F0C5FA002808DB9DF8E1
:10620C0008000299000932465030FFF7A1FEF1E771
:10621C00204CD4E90023134335D01F4B1B88B3F516
:10622C007A7F30D923885BB1002043FA00F212F058
:10623C00010203D101301028F7D1104610301BE0B9
:10624C0062885AB142FA03F111F0010103D1013312
:10625C00102BF7D10B4603F130000DE0A08860B194
:10626C00134640FA03F212F0010203D10133102B52
:10627C00F7D1134603F15000C0B2FFF7B7FC002270
:10628C000023C4E90023002008B0BDE8F08100BF62
:10629C00BC9F0000400500102A050010003018BFFC
:1062AC00012040427047000038B9054B054A186080
:1062BC0010231370044A137070474FF0FF3070476F
:1062CC00500500100FC0072010C0072010F0F00F71
:1062DC0004D101280CBF064B064B18780309022B7E
:1062EC0003D100F00F0002F065B84FF0FF3070479B
:1062FC0010C007200FC0072007B502AB03F8011D23
:10630C0019460122FFF7E2FF03B05DF804FB000021
:10631C00F8B52C4F3B6813B10024264606E04FF02D
:10632C00FF30F8BDBCB33F2E35D800242546042DD4
:10633C00F8D8DFE805F003050F1A25000125F6E76C
:10634C00002001F029FEA0BB01F05EFF02250146F2
:10635C00202022E0012001F01FFE60BB012001F093
:10636C0053FF03250146212017E0022001F014FE03
:10637C0018BB022001F048FF0425014622200CE046
:10638C00032001F009FED0B9032001F03DFF0525E3
:10639C000146232001E00020F8BD0029C7DB3B6843
:1063AC0001340136E4B2F6B2002BC0D0C9B2984722
:1063BC00BDE70225BBE70325B9E70425B7E70525AB
:1063CC00B5E700BF5005001008B501F0E5FD002849
:1063DC00D4BF0020012008BD012838B505460CD8D3
:1063EC0000F0BEFB064BFF225A55064B002423F847
:1063FC00154000F0C9FB204638BD4FF0FF3038BDCA
:10640C00540500107205001010B50446C8B90E4BA7
:10641C00FF221860187158719871D8711881D86062
:10642C00187458749874D8749882084B1A70FFF7C3
:10643C00D3FF0120FFF7D0FF204601F09DFEC017CF
:10644C0010BD4FF0FF3010BD580500107005001046
:10645C0008B500F085FB4FF6FF714FF6FF70104A40
:10646C0013888B421CBF013313800E4B5288198941
:10647C0081421CBF013119814FF6FF718A421EBF48
:10648C00074901324A804FF6FF729B8A93421EBF26
:10649C00044A0133938200F077FB002008BD00BF53
:1064AC0072050010580500102DE9F347C1F30727BA
:1064BC00054601F00F085FFA87F9C1F3074AC1F3EB
:1064CC000766FFF781FF002844D0264B13F80840DD
:1064DC00002C42D0244A8DF8047032F815308DF817
:1064EC0005A0B3F57A7F8DF8066003D92846FFF72F
:1064FC0073FF1DE01D4B1B782B41D90718D5B8F144
:10650C00070F15DDB8F10F0F12D0012C0FD9184B56
:10651C005B5D4B4509BF04F1FF3400238DF804A0EB
:10652C008DF805600CBFE4B222F8153000E00124B0
:10653C00B9F1F70F98BF0E4B284601A9224698BF18
:10654C005F5501F037FF831C08D0002818BF4FF0AF
:10655C00FF3003E04FF0FF3000E0204602B0BDE812
:10656C00F08700BFE49F000072050010700500105A
:10657C005405001038B505460C4628462146FFF751
:10658C0093FF831CF9D038BDF8B504460D46FFF7D0
:10659C001BFF002800F0E380204601F035FE0028A8
:1065AC00714AC0F2C38010F0800FC1B24FF00C03DF
:1065BC0066D0F72908D92B78697043F00F032B703C
:1065CC000023AB70EB70CDE06343DFF8A0E1C1F3C7
:1065DC0002171EF80770D618317177710FB10023AE
:1065EC0044E0DFF88CE100F00F001EF80000F02909
:1065FC00707103D101237170F371F0E7F72927D182
:10660C0096F807E0D05CBEF1000F0AD0BEF1010F86
:10661C0011D14FF0060E6EF30300D054B170F77029
:10662C000EE0052767F30300D054717086F802E082
:10663C0086F803E004E0072767F30300D054F170F9
:10664C000C236343D118D3582B600023CB710CE07F
:10665C000028C4D1D75C4FF0050E6EF30307D75456
:10666C007170B070F070D3582B6001230C2101FBBA
:10667C0004214879887100200881002B8CD071E0AE
:10668C0003FB04231879F02817D1D8790130C0B254
:10669C000128D87103D0022803D199707CE7597076
:1066AC007AE7D9701978042060F30301197019681E
:1066BC0029600021D971198154E0987920B95E794B
